:100000000C9463000C948B000C948B000C948B006C
:100010000C948B000C948B000C948B000C941B079D
:100020000C948B000C948B000C948B000C948B0024
:100030000C948B000C942B100C948B000C948B0064
:100040000C9409060C948B000C9471040C94AD0470
:100050000C948B000C948B000C948B000C948B00F4
:100060000C948B000C948B00000000070002010030
:100070000003040600000000000000000102040864
:100080001020408001020408102001020408102002
:10009000040404040404040402020202020203032E
:1000A00003030303000000002300260029000000D2
:1000B0000000250028002B0000000000240027007D
:1000C0002A00F801680511241FBECFEFD8E0DEBF7B
:1000D000CDBF11E0A0E0B1E0EEE7F8E202C005908C
:1000E0000D92AE31B107D9F715E0AEE1B1E001C034
:1000F0001D92AB33B107E1F710E0C6ECD0E004C0CD
:100100002297FE010E943914C23CD107C9F70E9410
:10011000C8030C94B2110C9400004F925F926F923E
:100120007F928F929F92AF92BF92CF92DF92EF9287
:10013000FF920F931F93CF93DF938DE2E82E81E020
:10014000F82E91E7C92E91E0D92E86015701C0E023
:10015000D0E0F50141905190619071905F0120E0F5
:1001600030E0A901C301B2010E941A128823E9F00C
:10017000F8012081318142815381C301B2010E9483
:10018000B6119B01462F532F682F792FF80140831A
:10019000518362837383622F732F0E948B12462FC9
:1001A000BE0180E692E00E94B70621960C5F1F4FC9
:1001B000C031D10571F68091B8018F5F8093B8018D
:1001C0008530B1F585E395E00E94C210F7011192E8
:1001D0001192119211927F01F60180809180A2808C
:1001E000B38020E030E0A901C501B4010E94691389
:1001F00020E030E040E05FE387FD05C0C501B401C9
:100200000E94B61104C0C501B4010E94B5110E943C
:1002100086120E94B912F6016193719381939193B2
:100220006F01FDE6EF16F1E0FF0681F61092B801CE
:10023000DF91CF911F910F91FF90EF90DF90CF90C2
:10024000BF90AF909F908F907F906F905F904F90F6
:1002500008951092B70184E4E1E7F1E0DF01982FFF
:100260001D929A95E9F7EDE2F1E0DF011D928A9582
:10027000E9F740E052EC61E070E089EB91E00E9428
:10028000E80463E080E692E00E94B4068CE291E02C
:100290000E94040740E157E260E070E085E395E0EA
:1002A0000C94BB10CF93DF93EC011092B80170E077
:1002B00080E090E00E94B712CC0FDD1FCC0FDD1F55
:1002C000FE01EF58FE4F20813181428153810E940F
:1002D000B51120E030E040EA50E40E941E12FB011C
:1002E000C35DDE4F462F5F2F682F792F48835983D8
:1002F0006A837B8322E030E089EB91E00E94C603B1
:100300002FEF3FEFA9016DE870E085E395E0DF9105
:10031000CF910C94D11089EB91E00E94D503892BE9
:10032000C9F189EB91E00E9404049C01205331093A
:100330002A30310560F42091B701220F922F990FD6
:10034000990F920F9053980F9093B70123C0833663
:10035000910539F48091B7018093B5011092B601EF
:1003600017C08737910559F48091B5019091B60176
:10037000009771F06091B7010E94520109C0813766
:10038000910531F463E071E089EB91E00E9436025F
:100390001092B7016EE171E08CE291E00E94AE0F25
:1003A000892B29F18091220190912301A0912401B0
:1003B000B09125018F3F9F4FAF4FBF4FA1F069E034
:1003C00071E089EB91E00E94360240912201509148
:1003D0002301609124017091250120E130E089EB37
:1003E00091E00E94BE028CE291E00C94BB0708955C
:1003F00064E070E08CE291E00C94FF06CF92DF9213
:10040000EF92FF920F931F93CF93DF936C01EB0159
:100410007A01E60EF71E00E010E00BC06991D601EC
:10042000ED91FC910190F081E02DC6010995080F36
:10043000191FCE15DF0591F7C801DF91CF911F91EC
:100440000F91FF90EF90DF90CF900895DB010D901A
:100450000020E9F7AD0141505109461B570BDC0163
:10046000ED91FC910280F381E02D09940C94260219
:10047000DC01ED91FC910190F081E02D09940F9346
:100480001F93CF93DF93EC016DE00E9438028C0143
:100490006AE0CE010E9438029C01200F311FC90181
:1004A000DF91CF911F910F9108954F925F926F92BC
:1004B0007F929F92AF92BF92CF92DF92EF92FF9284
:1004C0000F931F93CF93DF93CDB7DEB7A1970FB6EE
:1004D000F894DEBF0FBECDBF5C016A017B01922E96
:1004E00019A281E0821710F08AE0982E8E010F5D2C
:1004F0001F4F492C512C612C712CC701B601A3014F
:1005000092010E94EB138C2D929E801911240150B0
:1005100011098A3014F4805D01C0895CF801808380
:1005200069017A01C114D104E104F10431F7B80181
:10053000C5010E942602A1960FB6F894DEBF0FBE39
:10054000CDBFDF91CF911F910F91FF90EF90DF9082
:10055000CF90BF90AF909F907F906F905F904F90A3
:1005600008952115310541F4DC01ED91FC910190D4
:10057000F081E02D642F09940C9455020F931F9382
:10058000CF93DF93EC010E94B1028C01CE010E9457
:100590003F029C01200F311FC901DF91CF911F91B4
:1005A0000F910895CF92DF92EF92FF920F931F93D6
:1005B000CF93DF93EC016A017B012115310579F4BA
:1005C000E881F9810190F081E02D642FDF91CF91D6
:1005D0001F910F91FF90EF90DF90CF9009942A30F8
:1005E000310519F477FD0EC02AE0B701A601CE014E
:1005F000DF91CF911F910F91FF90EF90DF90CF90FF
:100600000C9455026DE20E9438028C014427552754
:10061000BA014C195D096E097F092AE0CE010E94DA
:100620005502080F191FC801DF91CF911F910F913B
:10063000FF90EF90DF90CF9008957F928F929F92DE
:10064000AF92BF92CF92DF92EF92FF920F931F93E0
:10065000CF93DF938C014A015B01F22E20E030E062
:10066000A901C501B4010E941A1287FF0AC06DE2F8
:10067000C8010E943802EC01B7FAB094B7F8B09400
:1006800002C0C0E0D0E0E12C60E070E080E09FE3D9
:1006900007C020E030E040E251E40E941E12E394E3
:1006A000EF10F7CF262F372F482F592FC501B40150
:1006B0000E94B611762E872E982EA92E0E948B129C
:1006C000B62EC72ED82EE92E0E94B7129B01AC0180
:1006D000672D782D892D9A2D0E94B511A62E972E63
:1006E000882E792E2AE04B2D5C2D6D2D7E2DC80194
:1006F0000E945502C80FD91FFF20B9F16CE071E0CC
:10070000C8010E942602C80FD91F2FC020E030E088
:1007100040E251E46A2D792D882D972D0E946D13AA
:10072000762EC72ED82EE92E0E9486124B01AA24BF
:1007300097FCA094BA2C2AE030E0B501A401C801CE
:100740000E94D202C80FD91FC501B4010E94B9127C
:100750009B01AC01672D7C2D8D2D9E2D0E94B51126
:10076000A62E972E882E792EFA94F110CFCFCE0197
:10077000DF91CF911F910F91FF90EF90DF90CF907D
:10078000BF90AF909F908F907F9008950C941D0321
:100790000E94EC100E942901C4EAD4E00E948B015F
:1007A0002097E1F30E94A404F9CFFC01848595858C
:1007B000FC01E05CFF4F20813181FC01EE5BFF4FCB
:1007C00080819181281B390B2F733327C90108952C
:1007D000FC0184859585FC01E05CFF4F40815181DF
:1007E000FC01EE5BFF4F208131814217530741F03E
:1007F0000190F081E02DE80FF91F208130E002C068
:100800002FEF3FEFC9010895FC0184859585FC0118
:10081000E05CFF4F40815181FC01EE5BFF4F208186
:1008200031814217530781F0A081B181A80FB91F10
:100830008C91208131812F5F3F4F2F73332731837C
:100840002083282F30E002C02FEF3FEFC901089529
:10085000FC0186859785FC01E05CFF4FDC01AE5B07
:10086000BF4F408151812D913C9111974217530701
:10087000C1F70895CF93DF93FC0186859785DC014E
:10088000A05CBF4F2D913C9111972F5F3F4F2F736D
:100890003327EC01CE5BDF4F4881598124173507A0
:1008A000D9F30D90BC91A02DA80FB91F6C93A6850C
:1008B000B785A05CBF4F11963C932E93A689B7894C
:1008C0002C9181E090E0058C02C0880F991F0A945A
:1008D000E2F7282B2C9381E090E0DF91CF910895EF
:1008E00008951F920F920FB60F9211242F933F93EA
:1008F0004F938F939F93EF93FF934091C600809106
:100900005C0290915D0201968F73992720915E029F
:1009100030915F028217930759F0E0915C02F091E9
:100920005D02E45EFD4F408390935D0280935C0224
:10093000FF91EF919F918F914F913F912F910F9048
:100940000FBE0F901F90189589EB91E00E94D50380
:10095000892B11F00C94700408951F920F920FB61A
:100960000F9211242F933F938F939F93EF93FF93B5
:10097000209118023091190280911A0290911B0265
:100980002817390731F48091C1008F7D8093C10011
:1009900014C0E0911A02F0911B02E852FE4F208130
:1009A00080911A0290911B0201968F739927909360
:1009B0001B0280931A022093C600FF91EF919F9132
:1009C0008F913F912F910F900FBE0F901F90189510
:1009D000CF92DF92EF92FF92CF93DF93EC016A0107
:1009E0007B01411581EE580761057105F9F0EC892D
:1009F000FD8981E090E00E8C02C0880F991F0A9457
:100A0000E2F7808360E079E08DE390E0A701960152
:100A10000E94EB1321503109410951095695479520
:100A200037952795211580E1380798F0EC89FD89E5
:100A3000108260E874E88EE190E0A70196010E94C0
:100A4000EB132150310941095109569547953795C6
:100A50002795E889F9893083EA89FB892083EE8923
:100A6000FF89408181E090E09C010A8C02C0220F46
:100A7000331F0A94E2F7422B4083EE89FF894081BD
:100A80009C010B8C02C0220F331F0A94E2F7422B09
:100A90004083EE89FF8940819C010C8C02C0220FAB
:100AA000331F0A94E2F7422B4083EE89FF892081AD
:100AB0000D8C02C0880F991F0A94E2F7809582235B
:100AC0008083DF91CF91FF90EF90DF90CF900895DA
:100AD0001092BC011092BB0188EE93E0A0E0B0E060
:100AE0008093BD019093BE01A093BF01B093C0015C
:100AF00082E191E09093BA018093B9018CE192E098
:100B00009093C6018093C50188ED91E09093C80150
:100B10008093C70185EC90E09093CA018093C9014E
:100B200084EC90E09093CC018093CB0180EC90E03A
:100B30009093CE018093CD0181EC90E09093D00111
:100B40008093CF0186EC90E09093D2018093D10105
:100B500084E08093D30183E08093D40187E0809385
:100B6000D50185E08093D60181E08093D701089577
:100B700081E08093610480910001282F30E0F90129
:100B8000E057FF4FE491F0E0EE0FFF1FE255FF4FFB
:100B9000459154914093620450936304F901E458E1
:100BA000FF4F24912093640461E00E94511185B5A8
:100BB000836085BDEEE6F0E08081816080830895EA
:100BC000CF93DF931F92CDB7DEB789832091640462
:100BD0003981E0916204F0916304822F90E0809566
:100BE0009095F8940080082200824BE000C05DE000
:100BF00000005A95E9F7008008220894379508F418
:100C0000022A00824A9599F778940F90DF91CF914C
:100C1000089578941F920F920FB60F9211242F937C
:100C20003F934F935F936F937F938F939F93AF9374
:100C3000BF93CF93DF93EF93FF9380916E008E7FEE
:100C400080936E00CFE7D0E08091650490916604B8
:100C5000009729F5C332D10508F440C0A397E0916D
:100C60006204F091630490818091640480958923EB
:100C700080838BE09AE29A95F1F700C08150D1F71A
:100C8000E0916204F0916304808190916404892B67
:100C900080838AE28A95F1F700C080E008C0CB30FB
:100CA000D105E0F02B97FC01E05AFD4F80810E94B6
:100CB000E005809165049091660401969093660426
:100CC00080936504209101013091020128173907B2
:100CD00008F0BACF109266041092650480916E00FD
:100CE000816080936E00FF91EF91DF91CF91BF9172
:100CF000AF919F918F917F916F915F914F913F91B4
:100D00002F910F900FBE0F901F9018950F931F9368
:100D1000CF93DF931F92CDB7DEB78C018091610432
:100D2000811104C069830E94B8056981C8010197D7
:100D30008115924098F48091010190910201302F29
:100D4000212F0817190710F4382F292F309301018C
:100D500020930201F801E05AFD4F60830F90DF916C
:100D6000CF911F910F910895609300010895CB01D9
:100D7000642F0C948606CF92DF92EF92FF92CF936E
:100D8000DF93EC01882777FD8095982F0E94B91298
:100D90006B017C0120E030E040E45FE30E946D13D2
:100DA00020E030E048E452E40E941E120E948612C5
:100DB000C617D707D4F020E030E040EA5FE3C70170
:100DC000B6010E946D1320E030E048E452E40E9436
:100DD0001E1220E030E040E85FE30E94B6110E945E
:100DE000861221E06C177D070CF420E0822F90E042
:100DF000DF91CF91FF90EF90DF90CF9008956093B7
:100E00006704109269040895F89482E08093B0001A
:100E10008093B10094E69093B3001092B200809357
:100E20007000789480936804109234058091670470
:100E300060E00C9451111F920F920FB60F92112483
:100E40002F933F934F935F936F937F938F939F93D2
:100E5000AF93BF93EF93FF93809167040E94891132
:100E600020916A0430916B042F5F3F4F30936B04E5
:100E700020936A0490913405943618F095E090938D
:100E80006804909168049330C1F020F4923009F026
:100E900058C006C0943059F1953009F052C04BC08B
:100EA00081114FC020916A0430916B0424363105C2
:100EB00008F443C0109234051CC0813009F041C0D1
:100EC00090913405E92FF0E020916A0430916B0491
:100ED000EE0FFF1FE959FB4F368325839F5F9093E9
:100EE000340510926B0410926A0494E021C08111C1
:100EF00017C090913405E92FF0E020916A043091F9
:100F00006B04EE0FFF1FE959FB4F368325839F5F6C
:100F10009093340510926B0410926A0493E008C019
:100F200020916A0430916B042536310550F095E02C
:100F30009093680406C0811104C010926B04109253
:100F40006A0490916904992329F0811102C02D9AB5
:100F500001C02D98FF91EF91BF91AF919F918F911B
:100F60007F916F915F914F913F912F910F900FBEA5
:100F70000F901F90189582E08093680410923405BA
:100F80000895AF92BF92CF92DF92EF92FF920F93AC
:100F90001F93CF93DF93EB010A851B85F8018281B4
:100FA00093816CE873E20E94BB06892B09F464C04C
:100FB00080913405843009F075C0F80184819581F1
:100FC00066E678E00E94BB06892B09F46BC0F80145
:100FD0008681978164E972E00E94BB06892B09F043
:100FE0004FC060C0F8018481958160E371E10E9487
:100FF000BB06892B09F440C00A5F1F4FE3E0AE2E09
:10100000B12CC12CD12C7601F8018081918164E949
:1010100072E00E94BB06892B79F1F80182819381ED
:101020006CED75E00E94BB06892B39F0CC0CDD1C01
:10103000EE1CFF1C6894C0F80DC0F80182819381FA
:101040006CEC71E00E94BB06892BB1F0CC0CDD1C6E
:10105000EE1CFF1CF2E0AF0EB11C0C5F1F4F83E4CF
:10106000A816B10489F680E290E099878887CC823F
:10107000DD82EE82FF820DC000E010E0980118C012
:10108000198618868FEF9FEFDC018C839D83AE83DA
:10109000BF8381E090E09983888301E010E020E045
:1010A00030E006C080913405843408F09BCFE4CF53
:1010B000B801C901DF91CF911F910F91FF90EF907F
:1010C000DF90CF90BF90AF900895AF92BF92CF9234
:1010D000DF92EF92FF920F931F93CF93DF93EB0179
:1010E000809134058A3108F47AC00A851B85F8019D
:1010F00080819181843F914060F4198618868FEF3A
:101100009FEFDC018C839D83AE83BF8389E090E0F9
:101110005FC0F8018281938164EC79E00E94BB0694
:10112000892B09F45CC00A5F1F4F82E0A82EB12C06
:10113000C12CD12C760138C0F80132978081918181
:1011400064EF71E00E94BB06892B61F4F1E0AF1AF5
:10115000B108B594A794B986A8862CE0A216B1046C
:101160008CF52DC0F8018081918164E175E00E94C9
:10117000BB06892B39F0CC0CDD1CEE1CFF1C6894DF
:10118000C0F80DC0F801808191816CEB72E00E9483
:10119000BB06892B21F1CC0CDD1CEE1CFF1CF2E000
:1011A000AF0EB11C0C5F1F4F8091340595012F5F6E
:1011B0003F4F90E0281739070CF4BECFC7CF1986F0
:1011C00018860DC0CC82DD82EE82FF8282E090E044
:1011D0009983888301E010E020E030E003C000E064
:1011E00010E09801B801C901DF91CF911F910F91D3
:1011F000FF90EF90DF90CF90BF90AF900895AF92A7
:10120000BF92CF92DF92EF92FF920F931F93CF93F3
:10121000DF93EB01809134058A3108F482C00A859E
:101220001B85F801808191818032934050F41986AA
:1012300018868FEF9FEFDC018C839D83AE83BF8385
:1012400067C0F8018281938160E17EE00E94BB0665
:10125000892B09F466C0F8018481958160E17EE004
:101260000E94BB06892B09F45CC0085F1F4F43E056
:10127000A42EB12CC12CD12C760138C0F8013297A4
:101280008081918162E573E00E94BB06892B61F445
:10129000F1E0AF1AB108B594A794B986A8862CE0FE
:1012A000A216B1048CF52DC0F8018081918164EC07
:1012B00079E00E94BB06892B39F0CC0CDD1CEE1CBA
:1012C000FF1C6894C0F80DC0F8018081918160E234
:1012D00073E00E94BB06892B21F1CC0CDD1CEE1CB7
:1012E000FF1CF2E0AF0EB11C0C5F1F4F8091340564
:1012F00095012F5F3F4F90E0281739070CF4BECFC0
:10130000C7CF198618860DC0CC82DD82EE82FF829F
:1013100089E090E09983888301E010E020E030E0EC
:1013200003C000E010E09801B801C901DF91CF913E
:101330001F910F91FF90EF90DF90CF90BF90AF90F3
:1013400008954F925F926F927F92AF92BF92CF9229
:10135000DF92EF92FF920F931F93CF93DF93EB01F6
:1013600080913405823208F467C0EA84FB84F70177
:101370008281938162EC71E00E94BB06892B09F4A3
:101380005BC0F6E0EF0EF11C02E010E0412C512CA6
:1013900032012DC0F7013297808191816F0162E0A7
:1013A00078E00E94BB06892B39F0440C551C661C62
:1013B000771C689440F80DC0F6018081918162E548
:1013C00073E00E94BB06892BB9F1440C551C661CC6
:1013D000771CF701808191816AEF70E00E94BB0663
:1013E000F4E0EF0EF11C892B69F00E5F1F4F5801DE
:1013F0002FEFA21AB20A8091340590E0A816B90620
:101400004CF201C085010150110915950795198706
:101410000887003111051CF4198618860DC04C820E
:101420005D826E827F828AE090E09983888301E00A
:1014300010E020E030E003C000E010E09801B801C7
:10144000C901DF91CF911F910F91FF90EF90DF9035
:10145000CF90BF90AF907F906F905F904F90089526
:101460006F927F928F929F92AF92BF92CF92DF92B4
:10147000EF92FF920F931F93CF93DF936A0159016D
:10148000DA01CD91DC91FB0184859585C817D907D8
:101490000CF056C0CE01880F991F0284F385E02D11
:1014A000E80FF91F20813181722E632EC170DD2774
:1014B000F1E0CF27209721F4A4E6EA2EF12C04C016
:1014C000FCE9EF2EFF24FA94B8016E0D7F1D872DE5
:1014D000962D0E94BB06892BD1F44801880C991CDB
:1014E000B4016E0D7F1D872D962D0E94BB06892BA2
:1014F00089F4B401600F711F6E0D7F1D872D962D2D
:101500000E94BB06892BF9F023E030E005C021E002
:1015100030E002C022E030E0D5018D919C9111971E
:101520000196821793070CF408C0F501118210820E
:10153000D6018D919C91119701968D939C9305C036
:10154000C1E0D0E002C0CFEFDFEFCE01DF91CF915D
:101550001F910F91FF90EF90DF90CF90BF90AF90D1
:101560009F908F907F906F9008952F923F924F920F
:101570005F926F927F928F929F92AF92BF92CF9223
:10158000DF92EF92FF920F931F93CF93DF9300D0E0
:1015900000D000D0CDB7DEB76C017B01809134055F
:1015A0008D3020F4C12CD12C760177C081E090E001
:1015B0009C838B831A8219824E0123E0820E911C38
:1015C00009E713E0AA24A394B12CAC0EBD1E95012B
:1015D000A401C6010E94300A892B21F79501A401BC
:1015E000B701C6010E94300A0197E1F69501A401F6
:1015F000B701C6010E94300A892BA1F6212C312C9B
:10160000412C512C32018D829E829A2C8B2C2EC023
:1016100009E713E0292D382D4D815E81B701C60100
:101620000E94300A5C01292D382D4D815E81B70161
:10163000C6010E94300AE1E0AE16B10451F4892BD4
:1016400009F0B0CF440C551C661C771C689440F818
:101650000AC0AB2809F0A6CF019709F0A3CF440C2C
:10166000551C661C771CFFEF2F1A3F0A809134052A
:1016700090E02B813C812817390754F2F70131861D
:101680002086448255826682778283E090E091834F
:101690008083C12CD12C7601C394B601C701269654
:1016A0000FB6F894DEBF0FBECDBFDF91CF911F9173
:1016B0000F91FF90EF90DF90CF90BF90AF909F90F1
:1016C0008F907F906F905F904F903F902F900895F4
:1016D0002F923F924F925F926F927F928F929F9242
:1016E000AF92BF92CF92DF92EF92FF920F931F9330
:1016F000CF93DF93CDB7DEB728970FB6F894DEBF50
:101700000FBECDBF6C017B01FB018485958518164A
:10171000190624F0C12CD12C7601B8C081E090E0EC
:101720009C838B83FB01A284B384F5018281938126
:101730006EEC7AE00E94BB06892B61F382E090E0B8
:101740009C838B83F5018481958165E173E00E9420
:10175000BB06892BF9F283E090E09C838B831A828D
:1017600019824E01F3E08F0E911C0CEB11E0662400
:101770006394712C6C0E7D1E9301A401B701C60108
:101780000E94300A892B31F69301A401B701C601EA
:101790000E94300A019709F0BDCFA12CB12C212C59
:1017A000312C21018D829E826F82788658C00CEB8D
:1017B00011E02F8138854D815E81B701C6010E94FD
:1017C000300A3C0183E0A816B10481F00CEB11E073
:1017D0002F8138854D815E81B701C6010E94300A94
:1017E0004C01E3E0AE16B10479F412C00CEB11E049
:1017F0002F8138854D815E81B701C6010E94300A74
:101800006816790619F386CF6114710479F019C04E
:101810000CEB11E02F8138854D815E81B701C60147
:101820000E94300A8816990679F374CF8A94892821
:1018300009F070CF220C331C441C551C689420F80E
:101840000BC06A94672809F065CF892809F062CF38
:10185000220C331C441C551CEFEFAE1ABE0A2B8120
:101860003C81F70184859585281739070CF49FCFB3
:10187000B186A086248235824682578284E090E039
:1018800091838083C12CD12C7601C394B601C7010A
:1018900028960FB6F894DEBF0FBECDBFDF91CF9173
:1018A0001F910F91FF90EF90DF90CF90BF90AF907E
:1018B0009F908F907F906F905F904F903F902F9070
:1018C00008958F929F92AF92BF92CF92DF92EF9244
:1018D000FF920F931F93CF93DF9300D000D0CDB72B
:1018E000DEB74B01FB01E284F384F701828193812F
:1018F00062E17EE00E94BB06892B09F476C0F70105
:10190000848195816AE377E00E94BB06892B09F404
:101910006CC0F6E0EF0EF11C63E0C62ED12C20E087
:1019200030E040E050E0A12CB12C00E010E0F701E5
:10193000808191816AE572E029833A834B835C83DD
:101940000E94BB06892B09F450C0F7018281938164
:1019500068E774E00E94BB0629813A814B815C8173
:10196000892B39F0B501C80101E00E940D142160F6
:1019700016C0F701828193816CE271E029833A837A
:101980004B835C830E94BB0629813A814B815C8139
:10199000892B59F1B501C80101E00E940D145B01CA
:1019A0008C01F2E0CF0ED11C84E0E80EF11CE3E6DE
:1019B000CE16D10409F0BBCFF401248335834683CE
:1019C0005783B501C80100E20E941C1422833383AF
:1019D00087E090E09183808380E390E09187808727
:1019E00001E010E020E030E003C000E010E09801EA
:1019F000B801C9010F900F900F900F90DF91CF9118
:101A00001F910F91FF90EF90DF90CF90BF90AF901C
:101A10009F908F9008958F929F92AF92BF92CF9296
:101A2000DF92EF92FF920F931F93CF93DF938B017F
:101A3000FB01E284F384F7018281938164EA7FE110
:101A40000E94BB06892B09F460C08091340589335C
:101A500008F45BC0F701848195816CE37FE00E940C
:101A6000BB06892B09F451C0E7012696F3E0CF2E7F
:101A7000D12C812C912C5401888199816CEB72E0DE
:101A80000E94BB06892B09F440C08A819B816CEDC2
:101A900075E00E94BB06892B39F0880C991CAA1CA2
:101AA000BB1C689480F80CC08A819B8162EC71E059
:101AB0000E94BB06892B49F1880C991CAA1CBB1CEF
:101AC000F2E0CF0ED11C24968BE3C816D104A1F608
:101AD000F701EA58FF4F808191816CEB72E00E9420
:101AE000BB06892B91F08CE190E0F801918780870B
:101AF00084829582A682B7828CE090E09183808375
:101B000001E010E020E030E003C000E010E09801C8
:101B1000B801C901DF91CF911F910F91FF90EF9014
:101B2000DF90CF90BF90AF909F908F9008958F924D
:101B30009F92AF92BF92CF92DF92EF92FF920F935C
:101B40001F93CF93DF93EB0180913405823209F02C
:101B50008FC00A851B85F801828193816CEB72E04E
:101B60000E94BB06892B09F483C080913405F801DB
:101B7000E80FF11DE80FF11D3297808191816CEB28
:101B800072E00E94BB06892B09F060C071C0809191
:101B90003405813208F456C0F701848195816CE3E5
:101BA0007FE00E94BB06892B09F44CC087010A5FC5
:101BB0001F4F83E0C82ED12C812C912C5401F801A9
:101BC000808191816CEB72E00E94BB06892BD1F180
:101BD000F801828193816CED75E00E94BB06892B30
:101BE00039F0880C991CAA1CBB1C689480F80DC0A5
:101BF000F8018281938162EC71E00E94BB06892B1F
:101C000009F1880C991CAA1CBB1CF2E0CF0ED11C58
:101C10000C5F1F4F83E2C816D10489F6F701EA5B17
:101C2000FF4F808191816CEB72E00E94BB06892B93
:101C300049F080E190E0998788878C829D82AE820E
:101C4000BF820DC000E010E098011FC01986188601
:101C50008FEF9FEFDC018C839D83AE83BF8388E091
:101C600090E09983888301E010E020E030E00DC02F
:101C7000EA84FB84F7018281938164EA7FE10E9418
:101C8000BB06892B09F083CFDDCFB801C901DF91F5
:101C9000CF911F910F91FF90EF90DF90CF90BF9069
:101CA000AF909F908F900895AF92BF92CF92DF92A6
:101CB000EF92FF920F931F93CF93DF93EB010A856F
:101CC0001B85F801828193816CEE73E10E94BB0653
:101CD000892B09F464C080913405843009F075C003
:101CE000F8018481958166E678E00E94BB06892B25
:101CF00009F46BC0F8018681978164E972E00E9463
:101D0000BB06892B09F04FC060C0F8018481958122
:101D100064E273E10E94BB06892B09F440C00A5FAC
:101D20001F4F33E0A32EB12CC12CD12C7601F8012A
:101D30008081918164E972E00E94BB06892B79F170
:101D4000F801828193816CED75E00E94BB06892BBE
:101D500039F0CC0CDD1CEE1CFF1C6894C0F80DC0E3
:101D6000F801828193816CEC71E00E94BB06892BA3
:101D7000B1F0CC0CDD1CEE1CFF1CF2E0AF0EB11C70
:101D80000C5F1F4F83E4A816B10489F680E290E04F
:101D900099878887CC82DD82EE82FF820DC000E0C9
:101DA00010E0980118C0198618868FEF9FEFDC01AC
:101DB0008C839D83AE83BF838BE090E0998388837F
:101DC00001E010E020E030E006C08091340584346A
:101DD00008F09BCFE4CFB801C901DF91CF911F91EB
:101DE0000F91FF90EF90DF90CF90BF90AF9008954C
:101DF0008F929F92AF92BF92CF92DF92EF92FF921B
:101E00007B01BA0180E090E00E94B7124B015C01B7
:101E1000B70180E090E00E94B7126B017C012DECCD
:101E20003CEC4CE45FE30E946D139B01AC01C501E7
:101E3000B4010E941A1287FD19C02DEC3CEC4CE451
:101E40005FE3C501B4010E946D139B01AC01C701A2
:101E5000B6010E941A12282F332727FD309522271A
:101E6000330F221F33272F5F3F4F02C020E030E0A7
:101E7000C901FF90EF90DF90CF90BF90AF909F90FF
:101E80008F9008958F929F92AF92BF92CF92DF92E0
:101E9000EF92FF920F931F93CF93DF936C01EB01AF
:101EA000EC84FD8486E0E816F1040CF445C0EE0CE9
:101EB000FF1C06E010E065EC862E6DE9962E6CE1C5
:101EC000A62E61E8B62E24C08A859B85FC01E00F12
:101ED000F11F40815181F8013497E80FF91F6081AB
:101EE0007181C6010E94F80EFC01A501940163E90D
:101EF00071E080E091E00E94DB134F01AA2497FC7F
:101F0000A094BA2C86269726A826B9260E5F1F4FC6
:101F10000E151F05C9F68C829D82AE82BF8280E2BB
:101F200090E0998788878FEF9FEF9983888301E0FE
:101F300010E020E030E003C000E010E09801B801BC
:101F4000C901DF91CF911F910F91FF90EF90DF902A
:101F5000CF90BF90AF909F908F9008950F931F9355
:101F6000CF93DF938C01EB018CE694E09B878A870B
:101F7000809134058C871D8680916804853009F036
:101F800062C0C8010E94C107672B682B692B19F03A
:101F900021E030E05AC0BE01C8010E946508672BED
:101FA000682B692BA9F7BE01C8010E94FF08672BA7
:101FB000682B692B69F7BE01C8010E94A109672B34
:101FC000682B692B29F7BE01C8010E94B50A672B4F
:101FD000682B692BE9F6BE01C8010E94680B672BCC
:101FE000682B692BA9F6BE01C8010E94610C672B02
:101FF000682B692B69F6BE01C8010E940B0D672B87
:10200000682B692B29F6BE01C8010E94970D672B2A
:10201000682B692B09F0BCCFBE01C8010E94540E89
:10202000672B682B692B09F0B3CFBE01C8010E9452
:10203000420F672B682B692B09F0AACF82E08093AF
:1020400068041092340520E030E0C901DF91CF919F
:102050001F910F9108951F920F920FB60F921124A6
:102060002F933F934F935F936F937F938F939F93A0
:10207000AF93BF93EF93FF93E0913905F0913A0549
:102080000995FF91EF91BF91AF919F918F917F91B2
:102090006F915F914F913F912F910F900FBE0F90D5
:1020A0001F901895FC01A3E0440F551F661F771F72
:1020B000AA95D1F74115510581E06807710514F41F
:1020C00081E00EC033E075956795579547953A9531
:1020D000D1F74115510581E0680771051CF482E0D4
:1020E000828332C023E075956795579547952A9569
:1020F000D1F74115510581E06807710514F483E0BB
:10210000EFCF92E075956795579547959A95D1F7DA
:102110004115510581E06807710514F484E0E0CFB2
:1021200082E075956795579547958A95D1F785E033
:1021300082834115510581E0680771050CF404C0E4
:102140004FEF5FEF60E070E08FB78383F8945183C7
:102150004083509387004093860083818FBF809196
:102160008100887F80938100809181009281892BFA
:102170008093810008951092800020E120938100D7
:102180000C945210EFE6F0E080818E7F80830895FA
:10219000E1E8F0E02081DC0112968C91282B20836D
:1021A00008950F931F93CF93DF93EC018B01BA0136
:1021B000A901141615061606170614F40E945210EB
:1021C0001D830C8381E080936F00CE01DF91CF915E
:1021D0001F910F910C94C810789484B5826084BDCF
:1021E00084B5816084BD85B5826085BD85B581601B
:1021F00085BDEEE6F0E0808181608083E1E8F0E07B
:102200001082808182608083808181608083E0E8A9
:10221000F0E0808181608083E1EBF0E08081846088
:102220008083E0EBF0E0808181608083EAE7F0E08A
:1022300080818460808380818260808380818160EE
:1022400080838081806880831092C10008958330EC
:1022500069F028F48130A1F0823011F514C0863085
:10226000B1F08730C1F08430D9F404C0809180008F
:102270008F7703C0809180008F7D809380000895C8
:1022800084B58F7702C084B58F7D84BD0895809119
:10229000B0008F7703C08091B0008F7D8093B00035
:1022A0000895CF93DF9390E0FC01E458FF4F4491F1
:1022B000FC01E057FF4F8491882341F190E0880FA3
:1022C000991FFC01E854FF4F25913491D9018255A3
:1022D0009F4FFC0185919491C82FD92F9FB7F894F7
:1022E0008C91611106C0409584238C93888184234E
:1022F00008C0623041F4242F209582238C9388817A
:10230000842B888302C0842B8C939FBFDF91CF9155
:102310000895CF93DF93282F30E0F901E859FF4F5C
:102320008491F901E458FF4FD491F901E057FF4F30
:10233000C491CC2389F081110E942711EC2FF0E089
:10234000EE0FFF1FEC55FF4F85919491DC018C91AE
:102350008D2321E030E011F420E030E0C901DF916D
:10236000CF910895F8940C943D145058BB27AA2798
:102370000ED075C166D130F06BD120F031F49F3FA3
:1023800011F41EF45BC10EF4E095E7FB51C1E92F97
:1023900077D180F3BA17620773078407950718F09F
:1023A00071F49EF58FC10EF4E0950B2EBA2FA02D7F
:1023B0000B01B90190010C01CA01A0011124FF27F2
:1023C000591B99F0593F50F4503E68F11A16F040ED
:1023D000A22F232F342F4427585FF3CF46953795EC
:1023E0002795A795F0405395C9F77EF41F16BA0BB1
:1023F000620B730B840BBAF09150A1F0FF0FBB1F5F
:10240000661F771F881FC2F70EC0BA0F621F731FA7
:10241000841F48F4879577956795B795F7959E3F04
:1024200008F0B3CF9395880F08F09927EE0F979592
:1024300087950895D9D008F481E008950CD00FC194
:1024400007D140F0FED030F021F45F3F19F0F0C02A
:10245000511139C1F3C014D198F39923C9F355230D
:10246000B1F3951B550BBB27AA2762177307840787
:1024700038F09F5F5F4F220F331F441FAA1FA9F33D
:1024800033D00E2E3AF0E0E830D091505040E6952F
:10249000001CCAF729D0FE2F27D0660F771F881F90
:1024A000BB1F261737074807AB07B0E809F0BB0B7F
:1024B000802DBF01FF2793585F4F2AF09E3F5105A3
:1024C00068F0B6C000C15F3FECF3983EDCF3869540
:1024D00077956795B795F7959F5FC9F7880F911D19
:1024E0009695879597F90895E1E0660F771F881F05
:1024F000BB1F621773078407BA0720F0621B730BB8
:10250000840BBA0BEE1F88F7E095089504D0689409
:10251000B111D9C00895BCD088F09F5790F0B92F61
:102520009927B751A0F0D1F0660F771F881F991F28
:102530001AF0BA95C9F712C0B13081F0C3D0B1E03A
:102540000895C0C0672F782F8827B85F39F0B93F4A
:10255000CCF3869577956795B395D9F73EF490952A
:102560008095709561957F4F8F4F9F4F0895E894A8
:1025700009C097FB3EF490958095709561957F4FCB
:102580008F4F9F4F9923A9F0F92F96E9BB27939579
:10259000F695879577956795B795F111F8CFFAF489
:1025A000BB0F11F460FF1BC06F5F7F4F8F4F9F4FBA
:1025B00016C0882311F096E911C0772321F09EE818
:1025C000872F762F05C0662371F096E8862F70E07E
:1025D00060E02AF09A95660F771F881FDAF7880F58
:1025E0009695879597F90895990F0008550FAA0BAE
:1025F000E0E8FEEF16161706E807F907C0F0121616
:102600001306E407F50798F0621B730B840B950B18
:1026100039F40A2661F0232B242B252B21F408956D
:102620000A2609F4A140A6958FEF811D811D08950A
:1026300097F99F6780E870E060E008959FEF80EC75
:10264000089500240A941616170618060906089518
:1026500000240A9412161306140605060895092E7E
:102660000394000C11F4882352F0BB0F40F4BF2BED
:1026700011F460FF04C06F5F7F4F8F4F9F4F08952D
:1026800057FD9058440F551F59F05F3F71F0479523
:10269000880F97FB991F61F09F3F79F08795089508
:1026A000121613061406551FF2CF4695F1DF08C027
:1026B000161617061806991FF1CF86957105610544
:1026C00008940895E894BB2766277727CB0197F9EC
:1026D00008958ADF08F48FEF08950BD0C0CFB1DFE3
:1026E00028F0B6DF18F0952309F0A2CFA7CF112468
:1026F000EACFC6DFA0F3959FD1F3950F50E0551FA9
:10270000629FF001729FBB27F00DB11D639FAA2746
:10271000F00DB11DAA1F649F6627B00DA11D661F95
:10272000829F2227B00DA11D621F739FB00DA11DB6
:10273000621F839FA00D611D221F749F3327A00D70
:10274000611D231F849F600D211D822F762F6A2F0C
:1027500011249F5750408AF0E1F088234AF0EE0F91
:10276000FF1FBB1F661F771F881F91505040A9F79E
:102770009E3F510570F05CCFA6CF5F3FECF3983ED3
:10278000DCF3869577956795B795F795E7959F5F05
:10279000C1F7FE2B880F911D9695879597F908959F
:1027A0000E942B14A59F900DB49F900DA49F800DA7
:1027B000911D11240895DB018F939F930E94D013E4
:1027C000BF91AF91A29F800D911DA39F900DB29FCD
:1027D000900D11240895A1E21A2EAA1BBB1BFD0126
:1027E0000DC0AA1FBB1FEE1FFF1FA217B307E407F0
:1027F000F50720F0A21BB30BE40BF50B661F771F48
:10280000881F991F1A9469F7609570958095909527
:102810009B01AC01BD01CF0108950F930F7351F0DF
:10282000220F331F441F551F661F771F881F991FD4
:102830000A95B1F70F9108950F930F7351F0969584
:1028400087957795679557954795379527950A9575
:10285000B1F70F910895A29FB001B39FC001A39F4C
:1028600001D0B29F700D811D1124911D0895EE0FAE
:0E287000FF1F0590F491E02D0994F894FFCF1E
:10287E000310003731303031004952002E00000075
:0E288E0000003A04FE01D5030404E803280408
:00000001FF
